:02000002D0002C
:1040000000400D0004520D00000006000C000501E8
:084010000401BD0B00000000DB
:04401800B84F0D0090
:10401C0009480A49884208B505D0094A824202D0AB
:10402C00121A00F081FF0748074A0021121A00F00B
:10403C0089FF014808BD00BFCCE5032074510D0079
:10404C0034E6032034E60320F0E7032070B5074E76
:10405C00074C00F0B7FBA41BA4080025A54200D117
:10406C0070BD56F8043B98470135F7E740510D00F9
:10407C0064510D0000F01BB808B500F025F8BDE840
:10408C00084000F061BB00F013BA00F019BA0078D8
:10409C00B0FA80F04009704701230370704710B5E7
:1040AC000446006808B100F00BFA204610BD08B5B4
:1040BC0000F08EFC4FF4165100F07EFCBDE8084079
:1040CC000121072000F096BE38B50E2000F0BCFE92
:1040DC00054600F07DFC0A22A9B2044600F0C3FAA2
:1040EC00204600F0B4FA0021072000F094FE4FF4B3
:1040FC007A7000F0EFFA0720012100F08CFEBDE889
:10410C0038404FF47A7000F0E5BA000038B50A4C2C
:10411C000A4BA360002503202560A580A57100F043
:10412C0033F90749074A204600F0E6FE29460120EC
:10413C00BDE8384000F038B938E603200000FFFF36
:10414C00AB400D0034E6032008B5024B1B689B689E
:10415C00019308BD6802030008B5024B1B68DB68BD
:10416C00019308BD6802030008B5024B1B685B682D
:10417C00019308BD2C02030008B5024B1B689B6819
:10418C00019308BD2C02030008B5024B1B68DB68C9
:10419C00019308BD2C02030008B5024B1B681B6978
:1041AC00019308BD2C02030008B5024B1B681B6B66
:1041BC00019308BD2C02030008B5024B1B685B6819
:1041CC00019308BD1802030008B5024B1B685B691C
:1041DC00019308BD1802030008B5024B1B685B6C09
:1041EC00019308BD4802030008B5024B1B689B6C89
:1041FC00019308BD4802030008B5024B1B685B69BC
:10420C00019308BD6402030008B5024B1B681B68D0
:10421C00019308BD3C02030008B5024B1B68DB6828
:10422C00019308BD3C02030008B5024B1B681B69D7
:10423C00019308BD3C02030008B5024B1B685B6987
:10424C00019308BD3C02030008B5024B1B689B6937
:10425C00019308BD3C02030008B5024B1B68DB69E7
:10426C00019308BD3C02030008B5024B1B681B6A96
:10427C00019308BD3C02030008B5024B1B689B6A06
:10428C00019308BD3C02030008B5024B1B681B6A76
:10429C00019308BD2802030008B5024B1B685B6A3A
:1042AC00019308BD2802030008B5024B1B689B6AEA
:1042BC00019308BD2802030008B5024B1B68DB6A9A
:1042CC00019308BD2802030008B5024B1B681B6B49
:1042DC00019308BD2802030008B5024B1B685B6BF9
:1042EC00019308BD2802030008B5024B1B681B6C28
:1042FC00019308BD2802030008B5024B1B68DB695B
:10430C00019308BD3002030008B5024B1B681B6A01
:10431C00019308BD3002030008B5024B1B681B68F3
:10432C00019308BD4C02030008B5024B1B685B6887
:10433C00019308BD4C02030008B5024B1B681B69B6
:10434C00019308BD4C02030008B5024B1B685B6966
:10435C00019308BD4C02030008B5024B1B689B6916
:10436C00019308BD4C02030008B5024B1B68DB69C6
:10437C00019308BD4C02030008B5024B1B681B6A75
:10438C00019308BD4C02030008B5024B1B685B6827
:10439C00019308BD2002030008B5024B1B685B6942
:1043AC00019308BD2002030008B5024B1B68DB6AB1
:1043BC00019308BD2002030008B5034B1B68D3F81A
:1043CC008830019308BD00002002030008B5034BA0
:1043DC001B68D3F89430019308BD00002002030041
:1043EC0008B5024B1B685B68019308BD40020300D3
:1043FC0008B5024B1B689B68019308BD4002030083
:10440C0008B5024B1B68DB68019308BD4002030032
:10441C0008B5024B1B681B69019308BD40020300E1
:10442C0008B5024B1B685B69019308BD4002030091
:10443C0008B5024B1B689B69019308BD4002030041
:10444C0008B5024B1B68DB69019308BD40020300F1
:10445C0008B5024B1B681B6A019308BD40020300A0
:10446C0008B5024B1B681B6B019308BD400203008F
:10447C0008B5024B1B685B6B019308BD400203003F
:10448C0008B5024B1B681B6C019308BD400203006E
:10449C0008B5024B1B685B6C019308BD400203001E
:1044AC0008B5024B1B68DB6B019308BD440203008B
:1044BC0008B5024B1B681B68019308BD1C02030066
:1044CC0008B5024B1B685B68019308BD1C02030016
:1044DC0008B5024B1B685B6C019308BD1C02030002
:1044EC00002240681146FFF7B3BF00224068114616
:1044FC00FFF7BEBF40680022FFF7B2BF4068002242
:10450C0081F00101FFF79CBF002340681A46194651
:10451C00FFF78EBF002340681A461946FFF780BF8D
:10452C00002240681146FFF773BF00224068114615
:10453C00FFF75EBF406800220221FFF761BF002336
:10454C0040681A46FFF74CBF024B03225A60024ADE
:10455C001A60704744E60320D44F0D0010B5044692
:10456C0008462170FFF7C8FE00236360204610BD8B
:10457C0010B5094B094C022200201A60084B206030
:10458C00A080A071A360FFF7FFFE2046054A0649F4
:10459C00BDE8104000F0B0BC58E603204CE6032008
:1045AC000000FFFF34E60320AB400D0010B50446BD
:1045BC00006808B1FFF718FE204610BD10B58368DF
:1045CC00044613B1032201469847204610BD000053
:1045DC0010B5064C002320462360FFF7FDFD204656
:1045EC00034A0449BDE8104000F086BC5CE6032099
:1045FC0034E60320B9450D00F8B506460D468F1874
:10460C000024BD420CD0336815F8011B9B68304662
:10461C009847031E01DB1C44F3E7002C08BF1C4623
:10462C002046F8BD13B50446084659B1019100F077
:10463C00B5FC23680199DB680246204602B0BDE850
:10464C001040184702B010BD03689B68184738B576
:10465C000D210546FFF7F8FF0A2104462846FFF70F
:10466C00F3FF204438BD30B58BB000238DF82430D7
:10467C00012A98BF0A2209AC0D46B1FBF2F101FBED
:10468C00125303F0FF03092B94BF30333733DBB2E3
:10469C00AA4204F8013DEFD92146FFF7C3FF0BB046
:1046AC0030BD002340681A461946FFF7B9BE00001A
:1046BC00014B024A1A60704760E6032008500D0057
:1046CC00024B1A68024B1A60704700BFCCE50320FE
:1046DC0064E603200021FFF75FBE10B50446FFF728
:1046EC006DFF204610BD00000348044A0449002316
:1046FC00836000F001BC00BF68E6032034E60320B1
:10470C00E7460D00014B1860704700BFD0E5032051
:10471C0008B50B4B43B100F05BF903681B69984774
:10472C00002801DDAFF30080064B43B100F0CEF959
:10473C0003681B699847002801DDAFF3008008BDB2
:10474C00000000000000000008B5FFF7E1FFFFF7D4
:10475C003BFD014B186008BDD4E703200248034A17
:10476C000349121A00F0E0BB00F4032004F4032008
:10477C0070510D0007B5002300931A466FF07701B6
:10478C00FFF724FE03B05DF804FB000007B5438877
:10479C000A2B08D0502B0BD1094B1B684BB103B023
:1047AC005DF804EB1847FFF7E5FF03B05DF804FB79
:1047BC00002300931A466FF07701FFF707FEF4E72A
:1047CC007CE6032038B5124C1248134D0021FFF73C
:1047DC007FFE2368AB42114B0CBF012200221A70E2
:1047EC0002D0FFF7BBFF2560FFF7E6FC044600F0A4
:1047FC00B1FB0B4B13B12046AFF3008000210848EE
:10480C00FFF74EFEBDE8384006480021FFF7D4BD47
:10481C0000F4032011470D001E1C279A78E6032094
:10482C000000000099470D00704710B51821044690
:10483C0000F067FB204610BDF0B5037D062B8DB054
:10484C000E4600F104074FF0000412D000F10805E9
:10485C0015F8011D0A223046FFF705FFAF4204444C
:10486C0019D0002CF4D02E213046FFF7EDFE044475
:10487C00EEE72F236A4639460A208DF80040FFF7F1
:10488C00BBFC684600F08AFB33680246DB6869466D
:10489C0030469847044620460DB0F0BD10B5054B88
:1048AC000446112240F8043B002100F04BFB20464B
:1048BC0010BD00BF30500D000346074A10B543F839
:1048CC00042B01F1100251F8044B43F8044B9142B4
:1048DC00F9D10A781A7010BD30500D0010B59DF842
:1048EC00084044EA032343EA024242EA01610423FA
:1048FC004160037510BD000013B5054B0360CB7808
:10490C0000938B784A780978FFF7E8FF02B010BD66
:10491C0030500D0041747047704708B50021007C81
:10492C00FFF71AFD40EAE07008BD08B50121007CD4
:10493C00FFF712FD40EAE07008BD08B5007CFFF7F8
:10494C0003FD20EAE07008BD08B5007CFFF7F4FC1D
:10495C0020EAE07008BD13B50446007C0191FFF716
:10496C00F3FC0028019901DC607C20B1207CFFF76E
:10497C00FBFC20EAE07002B010BD007CFFF7FCBC31
:10498C0010B51421044600F0BCFA204610BD0000FE
:10499C0010B54FF47A73044608460021C4E901139C
:1049AC00044B23600123207463741146FFF7B4FC9D
:1049BC00204610BD44500D00007C0022FFF7B4BC13
:1049CC0010B514220446002100F0BCFA204610BD9C
:1049DC0010B5104C88B003A8FFF7F2FF2178BFF395
:1049EC005B8F11F0010111D120460191FFF74FFBB4
:1049FC00019958B103AA0848FFF7CAFF2046FFF7F0
:104A0C004BFB064A0649044800F076FA024808B007
:104A1C0010BD00BF80E6032084E6032034E60320AB
:104A2C0025490D0070474174704708B5007CFFF7AD
:104A3C0023FC20EAE07008BD08B5007CFFF7F4FB0E
:104A4C0020EAE07008BD08B5007CFFF7FDFB40EAEA
:104A5C00E07008BD08B5007CFFF7EEFB40EAE070A3
:104A6C0008BD007CFFF7F8BB37B5457C04462DB17B
:104A7C00207C03B0BDE83040FFF7CEBB007C019139
:104A8C00FFF7FAFB00280199F2DC284603B030BD91
:104A9C0010B51421044600F034FA204610BD000075
:104AAC0010B54FF0000C0446084611464FF47A72CC
:104ABC00C4E901C2044A22600122207462741A46BD
:104ACC00FFF7A2FB204610BD74500D0013B50E4C21
:104ADC002178BFF35B8F11F0010112D120460191B7
:104AEC00FFF7D5FA019960B1084A094B0948FFF75D
:104AFC00D7FF2046FFF7D0FA074A0849054800F0CF
:104B0C00FBF9044802B010BD98E603209CE6032094
:104B1C0020E70320A4E7032034E60320314A0D00EC
:104B2C007047F8B5064615460C468F18BC4206D0A1
:104B3C00336814F8011B9B6830469847F6E7284603
:104B4C00F8BD007C0022FFF79FBB007C0021FFF723
:104B5C00A3BB007C0021FFF7A7BB007C0021FFF763
:104B6C00ABBB007C0021FFF7AFBB10B51421044692
:104B7C0000F0C7F9204610BD10B54FF47A73044607
:104B8C0008460021C4E90113034B2360207411462D
:104B9C00FFF7AAFB204610BDA4500D000022406870
:104BAC001146FFF735BC002240681146FFF750BC98
:104BBC00002240681146FFF75BBC40680022FFF7FB
:104BCC004FBC4068002281F00101FFF739BC002383
:104BDC0040681A461946FFF72BBC00224068114664
:104BEC00FFF706BC406800220221FFF709BC002336
:104BFC0040681A46FFF7F4BB024B04225A60024A83
:104C0C001A607047B8E70320CC500D0000234068B1
:104C1C001A46FFF7E5BB406800220221FFF7F0BB04
:104C2C00002240681146FFF7E3BB002240681146A2
:104C3C00FFF7EEBB002340681A461946FFF7F0BB9E
:104C4C00002340681A461946FFF7F2BB4068002162
:104C5C00FFF716BC40680021FFF71ABC4068002221
:104C6C0081F00101FFF7ECBB40680022FFF7F8BBB5
:104C7C00002240681146FFF7FBBB0022406811463A
:104C8C00FFF7E6BB2DE9F043002495B016460D4620
:104C9C000746FFF703FE214618220EA8009400F0E9
:104CAC0051F94023CDE90C3421466B460CAA304611
:104CBC00FFF752FA044600284CD1024601216868DD
:104CCC00FFF7A6FB0221804622466868FFF7A0FB8F
:104CDC00009E81462146002E3CD000293AD17368B3
:104CEC00022B03D00A2B11D0F669F4E7B8F1000FB0
:104CFC000AD0716906A8043107ADFFF7FDFD0FCD91
:104D0C003C1D0FC42B6823704146EDE7B9F1000F31
:104D1C0001D14946E8E77469102201A800F012F9A4
:104D2C0006238DF8143001AD04F10803183418680B
:104D3C0059682A4603C20833A3421546F7D101A984
:104D4C0006A807ADFFF7B8FD0FCD3C1D0FC42B68AF
:104D5C002370DEE70098FFF7F7F9384615B0BDE889
:104D6C00F0830000024B034A1A6000225A6070471D
:104D7C00C0E7032008510D00232813B502D90020E9
:104D8C0002B010BDA0F10B03022B1AD8174C2178DE
:104D9C00BFF35B8F11F001010BD120460191FFF79E
:104DAC0076F9019928B11248FFF7D8FB2046FFF796
:104DBC0073F90F4B1878FFF7A7FA0028DFD1012001
:104DCC00DEE7012809D800F06FF80021007CFFF71E
:104DDC0083FA80F00100C0B2D2E709380128EED87E
:104DEC00FFF774FE007CFFF73FFAF2E7C8E70320F9
:104DFC00CCE70320232838B504460D460AD8FF29F2
:104E0C0008D0FFF7B9FF28B129462046BDE8384045
:104E1C00FFF7B2B938BD38B504460D46FFF7B4F903
:104E2C00FF2810D0062804D84D2323FA00F0C3071E
:104E3C0009D42046FFF7A0FF28B129462046BDE83B
:104E4C003840FFF7A9B938BD0D2810B504469CBFF2
:104E5C000E34A4B22046FFF78FFF50B10321204639
:104E6C00FFF782F9032804D12046BDE81040FFF774
:104E7C009BB9002010BD000038B5002320254380CD
:104E8C00142304460380856005610649284600F01A
:104E9C003AF804496060284600F035F8E060204696
:104EAC0038BD00BF3C510D0030B50F4D2978BFF314
:104EBC005B8F11F0010487B013D12846FFF7E7F898
:104ECC0078B101A8FFF7D8FF01AA21460748FFF7E0
:104EDC0053FE2846FFF7E0F8054A0649034800F060
:104EEC000BF8024807B030BDD8E70320DCE70320FD
:104EFC0034E603202D4B0D000B460146184600F0FE
:104F0C0005B8FFF7C2B8FFF7BEB8000010B5054CE6
:104F1C0013462CB10A4601460220AFF3008010BDA7
:104F2C002046FCE7000000000A44914200F1FF33E8
:104F3C0000D1704710B511F8014B03F8014F9142A5
:104F4C00F9D110BD02440346934200D1704703F8D7
:104F5C00011BF9E738B50D4B1D68AB6B04467BB9EB
:104F6C001820FFF7A5FA0A4A0A4BA863C0E90023E8
:104F7C00094B83600B23838101220023C0E90423A6
:104F8C00AB6B00221C615A6138BD00BFD0E5032019
:104F9C000E33CDAB34126DE6ECDE0500034613F890
:104FAC00012B002AFBD1181A013870471D400D0047
:104FBC0059400D0081400D0085400D00000000009F
:104FCC0000000000000000004B450D0041450D00A5
:104FDC0037450D002D450D0021450D0015450D00E3
:104FEC00594C0D00614C0D0009450D0001450D009B
:104FFC00F7440D00ED440D00914C0D0061707000F4
:10500C0025592D256D2D25645425483A254D3A25D5
:10501C0053257A0061736374696D650000000000AC
:10502C000000000045480D0035480D0037480D00C4
:10503C00000000000000000025490D008D490D0006
:10504C0063490D0005460D0055490D0027490D001B
:10505C0037490D0087490D0047490D0021490D00C6
:10506C000000000000000000314A0D009D4A0D00B8
:10507C00754A0D0005460D00454A0D00614A0D00AC
:10508C00534A0D006F4A0D00334A0D00374A0D008C
:10509C0000000000000000002D4B0D00774B0D00B0
:1050AC004F4B0D002F4B0D00574B0D005F4B0D0060
:1050BC00674B0D006F4B0D0000000000000000005E
:1050CC00FB4B0D00F14B0D00E74B0D00A94B0D00F8
:1050DC00AF460D00DB4B0D00594C0D00614C0D0023
:1050EC00CF4B0D00C74B0D00BD4B0D00B34B0D004E
:1050FC00914C0D000000000000000000194C0D0048
:10510C00234C0D002D4C0D00374C0D00414C0D0067
:10511C004D4C0D00594C0D00614C0D00694C0D00AF
:10512C00754C0D007D4C0D00874C0D00914C0D0005
:10513C000000000019410D0055450D007D450D0086
:10514C00DD450D00BD460D00CD460D00F5460D00AC
:10515C00054C0D00714D0D0000000000000000001A
:04516C00000000003F
:04517000000000003B
:1051740020500D00D4E503200000000000000000D2
:10518400000000000000000000000000000000001B
:10519400000000000000000000000000000000000B
:1051A40000000000000000000000000000000000FB
:1051B40000000000000000000000000000000000EB
:1051C40000000000000000000000000000000000DB
:0851D4000000000000000000D3
:1051DC00FFFFFFFF00000102030405060708090A90
:1051EC000B0C0D0E0F101112131415161718191A8B
:0851FC001B1C1D1E1F202800D2
:045204007856341292
:04000003D000401CCD
:00000001FF
